:100000000C9441000C9469000C9469000C946900F4
:100010000C9469000C9469000C9469000C946900BC
:100020000C9469000C9469000C9469000C946900AC
:100030000C9469000C9469000C9469000C9469009C
:100040000C9469000C9469000C9469000C9469008C
:100050000C9469000C9469000C9469000C9469007C
:100060000C9469000C9469000C9469000C9469006C
:100070000C9469000C9469000C946900B707BF07E1
:10008000BB0711241FBECFEFD8E0DEBFCDBF11E00C
:10009000A0E0B1E0EAE1F1E102C005900D92AA30E2
:1000A000B107D9F721E0AAE0B1E001C01D92A73164
:1000B000B207E1F710E0C0E4D0E004C02197FE01F0
:1000C0000E94FD07CE33D107C9F70E94B0070C94F8
:1000D0005B080C940000572F242F462FBC018AE0A8
:1000E00091E00C94E103CF93DF93D62FC72F242FF9
:1000F000462F572FBC018AE091E00E94CF0285E095
:1001000090E00E9404078D2F9C2FDF91CF910895DE
:100110009C0180E0F901E80FF11D9081911101C06F
:1001200008958F5FF7CF0F931F93CF93DF930F92B5
:10013000CDB7DEB78C010E94F804898321E0AE01BF
:100140004F5F5F4FB8018AE091E00E94E10389812F
:100150000F90DF91CF911F910F910895CF93DF936F
:1001600000D0CDB7DEB742E0BE016F5F7F4F80E0C9
:1001700090E00E94730089819A81982789279827A7
:100180000F900F90DF91CF9108950F931F93CF930E
:10019000DF930E948E0480E090E00E94930081E053
:1001A00090E00E9493000E94AE008C01C2E0D0E07B
:1001B000C017D10728F0DF91CF911F910F910895BB
:1001C000CE010E9493002196F3CFFC0190816181C2
:1001D0009236C9F190F4953461F138F4993089F18F
:1001E000943419F19230D9F00895963431F1905643
:1001F000923008F063C00C948904903C09F440C02C
:1002000038F49436C9F19536C9F1933649F1089519
:10021000913C09F440C09F3F09F44DC0089529E185
:10022000629FC00111240C9404078BE091E00C94B0
:100230004C028BE091E00C940C02862F90E00C9421
:1002400012050C948D0524E6629FC00111246FEF06
:1002500070E00E94C707862F60E070E00C945C0499
:1002600024E6629FC00111246FEF70E00E94C7076F
:10027000862F61E070E0F2CF0C9477040C946C044C
:1002800080910201909103019093010180930001FC
:1002900060931201089580911201811579F02091E7
:1002A000000130910101309303012093020181503C
:1002B00080931201089581E0809311010895EF92D7
:1002C000FF920F931F93CF93DF9300D000D0CDB751
:1002D000DEB78E010D5F1F4F42E0B8018091020131
:1002E000909103010E947300F02EE12E0091020113
:1002F000109103010E5F1F4F8B8110930301009338
:100300000201813049F50E94AE000817190758F51F
:1003100080911101811127C0C8010E94B80442E0F8
:10032000BE016F5F7F4F80910201909103010E9497
:100330007300CE0101960E94E5008981813C49F05D
:1003400080910201909103010296909303018093A2
:1003500002010E5F1F4FD7CF42E06F2D7E2DC801E7
:100360000E947300C3CF0F900F900F900F90DF91FA
:10037000CF911F910F91FF90EF9008950C948E04F0
:10038000FC01CB01642F422F8083918362832383FE
:1003900023E030E0358324830C948907FC01A0819D
:1003A000B1814C91828121E030E0B90102C0660F39
:1003B000771F8A95E2F7CB01809584238C93A081E7
:1003C000B1818C91938101C0220F9A95EAF7822B1B
:1003D0008C93158214820895FC01A081B1818C91C7
:1003E000428121E030E0B90102C0660F771F4A95D3
:1003F000E2F7862B8C93A081B1814C918381B90166
:1004000002C0660F771F8A95E2F7CB01809584239F
:100410008C93358324830895FC01A081B1814C9194
:10042000228181E090E0BC0102C0660F771F2A950F
:10043000E2F79B01209524232C93A081B1812C917C
:10044000338101C0880F3A95EAF7809582238C9317
:1004500083E090E0958384830895CF93DF93EC014C
:100460000E94EC018FE79EE30197F1F700C00000C6
:10047000CE010E94CE018FE79EE30197F1F700C005
:10048000000082E090E09D838C83DF91CF910895FE
:10049000FC01848195810895613019F0623019F072
:1004A00008950C94EC010C94CE01089580EA809399
:1004B00004011092B90080E28093B8000895FC0115
:1004C00080E88083CF010C945602843028F4880F92
:1004D000806A8093040108958FEF0895FA0194EAE9
:1004E00024E89093BC008091BC0087FFFCCF8091F2
:1004F00004018093BB002093BC008091BC0087FF67
:10050000FCCF8091B900883161F784EA8093BC0008
:100510008091BC0087FFFCCF809104018093BB00D9
:1005200084E88093BC008091BC0087FFFCCF70936F
:10053000BB0084E88093BC008091BC0087FFFCCFA7
:100540006093BB0084E88093BC008091BC0087FF6F
:10055000FCCF8091BC0087FFFCCF84EA8093BC0075
:100560008091BC0087FFFCCF809104018F5F809356
:10057000BB0084E88093BC008091BC0087FFFCCF67
:1005800084E88093BC008091BC0087FFFCCF809101
:10059000BB00808384E98093BC0080E0089594EAE6
:1005A00034E89093BC008091BC0087FFFCCF809121
:1005B00004018093BB003093BC008091BC0087FF96
:1005C000FCCF8091B900883161F784EA8093BC0048
:1005D0008091BC0087FFFCCF809104018093BB0019
:1005E00084E88093BC008091BC0087FFFCCF7093AF
:1005F000BB0084E88093BC008091BC0087FFFCCFE7
:100600006093BB0084E88093BC008091BC0087FFAE
:10061000FCCF84EA8093BC008091BC0087FFFCCFB4
:10062000809104018F5F8093BB0084E88093BC00BD
:100630008091BC0087FFFCCF84EC211105C084E9C8
:100640008093BC0080E00895213009F484E8809311
:10065000BC009091BC0097FFFCCFFA019091BB00C9
:1006600091932150AF01E9CF94EA24E89093BC0024
:100670008091BC0087FFFCCF809104018093BB0078
:100680002093BC008091BC0087FFFCCF8091B90013
:10069000883161F784EA8093BC008091BC0087FFB9
:1006A000FCCF809104018093BB0084E88093BC0060
:1006B0008091BC0087FFFCCF7093BB0084E88093DF
:1006C000BC008091BC0087FFFCCF6093BB0084E836
:1006D0008093BC008091BC0087FFFCCF4093BB009F
:1006E00084E88093BC008091BC0087FFFCCF84E944
:1006F0008093BC0080E00895CF93DF93FB01260F29
:10070000372F311DEC0188818150990B862B9F2B4F
:100710002817390718F09C012F5F3F4F822F8E1B3F
:1007200024EA34E82093BC009091BC0097FFFCCFF2
:10073000909104019093BB003093BC009091BC0059
:1007400097FFFCCF9091B900983161F794EA9093AC
:10075000BC009091BC0097FFFCCF90910401909356
:10076000BB0094E89093BC009091BC0097FFFCCF35
:10077000F093BB0094E89093BC009091BC0097FF6D
:10078000FCCFE093BB0094E89093BC009091BC0038
:1007900097FFFCCF982F24E8911106C094E990931D
:1007A000BC00DF91CF910895DA013D913093BB00F9
:1007B0002093BC003091BC0037FFFCCF9150AD01BD
:1007C000EBCFDF92EF92FF920F931F93CF93DF93C4
:1007D000D82ED92F7B018A01C22F2C2FA801B70157
:1007E0008D2D9D2F0E947C03E80EF11CC81B080F65
:1007F000111DC111F2CF80E0DF91CF911F910F91B8
:10080000FF90EF90DF900895853608F084E62FEF93
:10081000829FC001112464E670E00E94C707862F02
:10082000089547E065E08BE290E00E94890746E08A
:1008300064E08BE290E00E948907E0EBF0E08081C9
:10084000816A8083E1EBF0E080818260808308959B
:10085000CF93DF93EB01853608F084E62FEF829F7C
:10086000C001112464E670E00E94C7076093B400E1
:100870000E941104219721F45C9ADF91CF91089591
:100880005C98FBCFCF93DF93EB01853608F084E6CD
:100890002FEF829FC001112464E670E00E94C70719
:1008A0006093B3000E941104219721F45D9ADF91B7
:1008B000CF9108955D98FBCF1F93CF93DF93C82FFF
:1008C000162FD72F0E942804612F7D2F8C2FDF91A8
:1008D000CF911F910C9442048FEF8093B4000E943B
:1008E00011045C9A60E070E084E60C94420460E0DD
:1008F00070E084E60E9428048FEF8093B3000E948A
:1009000011045D9A08951092B40008951092B300F6
:1009100008951092B4001092B30008951092C5008B
:100920008FEC8093C4001092C00088E18093C100D6
:1009300086E08093C20008959091C00095FFFCCF9F
:100940008093C60008950F931F93CF938C01C0E04E
:10095000F801EC0FF11D8081811106C08AE0CF9172
:100960001F910F910C949C040E949C04CF5FF0CFC8
:100970001F93CF93DF93CDB7DEB760970FB6F89490
:10098000DEBF0FBECDBF4AE0BE016F5F7F4F0E944A
:10099000310810E0FE013196E10FF11D80818111D7
:1009A0000DC08AE00E949C0460960FB6F894DEBFEA
:1009B0000FBECDBFDF91CF911F9108950E949C047F
:1009C0001F5FE8CF0F931F93CF93DF93EC018C0150
:1009D000060F111DC017D10739F48AE0DF91CF91BE
:1009E0001F910F910C949C0489910E949C04F2CF5A
:1009F0008091C00087FFFCCF8091C60008950E94BF
:100A0000EF0662E085E290E00C94A407CF93DF93B9
:100A1000EC010E94FF04BE0180E090E0DF91CF91E5
:100A20000C94B906FC01BD97E532F10508F074C0DD
:100A3000E859F74F0C94FD078EE690E00C940605FC
:100A400085E790E0FBCF8BE790E0F8CF83E890E07C
:100A5000F5CF8BE890E0F2CF83E990E0EFCF8CE91F
:100A600090E0ECCF85EA90E0E9CF8FEA90E0E6CF26
:100A700089EB90E0E3CF84EC90E0E0CF80ED90E074
:100A8000DDCF8CED90E0DACF89EE90E0D7CF87EF25
:100A900090E0D4CF86E091E0D1CF85E191E0CECF58
:100AA00086E291E0CBCF87E391E0C8CF8AE491E082
:100AB000C5CF8DE591E0C2CF82E791E0BFCF88E856
:100AC00091E0BCCF8FE991E0B9CF88EB91E0B6CF50
:100AD00082ED91E0B3CF8EEE91E0B0CF8BE092E06B
:100AE000ADCF8AE292E0AACF8BE492E0A7CF8EE668
:100AF00092E0A4CF83E992E0A1CF8AEB92E09ECF6F
:100B000084EE92E09BCF80E193E098CF8FE393E077
:100B100095CF80E793E092CF08950C94FC069C015A
:100B200080918100887F809381002034310511F10C
:100B300058F421303105A1F028303105B9F0309357
:100B40000801209307010895211581E03807B1F0CD
:100B5000211584E0380799F780918100856003C0F2
:100B600080918100816080938100E9CF8091810034
:100B70008260F9CF809181008360F5CF8091810000
:100B80008460F1CF9C0188E090E02234310530F0A0
:100B90002D3082E0380720F480E490E00C948F053B
:100BA0002233384018F480E091E0F8CF80E094E000
:100BB000F5CFCF93DF9300D000D00F92CDB7DEB743
:100BC0008D839983F8941092810010928500109281
:100BD0008400109280008091810088608093810061
:100BE000109282008D8199810E94C205AD81B981E8
:100BF00020E032E14AE750E00E94120869837A83DC
:100C00008B839C832091070130910801A8EEB3E00B
:100C10000E9403089B01AC0169817A818B819C81D0
:100C20000E94DB07DA01C9010197A109B109009708
:100C300021E0A207B10520F08FEF9FEFA0E0B0E028
:100C4000909389008093880080916F0082608093E8
:100C50006F0078940F900F900F900F900F90DF918E
:100C6000CF910895E1E8F0E08081887F8083089546
:100C700080910701909108010C948F051092130147
:100C800010921401109215011092160108956091AE
:100C9000130170911401809115019091160108952E
:100CA0008091130190911401A0911501B09116014A
:100CB0000196A11DB11D8093130190931401A0937F
:100CC0001501B093160108959C0185B5887F85BDF7
:100CD00020343105F1F058F42130310599F02830F5
:100CE0003105A1F0309306012093050108952115E7
:100CF00081E0380789F0211584E0380799F785B538
:100D0000856002C085B5816085BDECCF85B5826008
:100D1000FBCF85B58360F8CF85B58460F5CF0F93A1
:100D20001F938B019C0109308DE3180721053105C4
:100D300030F081E090E01F910F910C946406013A2D
:100D400087E018072105310518F088E090E0F3CF1F
:100D500080E490E0043F11052105310560F780E053
:100D600091E00D3311052105310528F780E094E06D
:100D7000E2CF0F931F93CF93DF938B01D82FC92F0F
:100D80000E948F0684B5806484BDA0910501B09156
:100D9000060198014D2F5C2F0E9412089B01AC01A7
:100DA000220F331F441F551F60E072E18AE790E075
:100DB0000E94DB07DA01C9010197A109B109811578
:100DC00021E09207A105B10520F08FEF90E0A0E0AF
:100DD000B0E087BDDF91CF911F910F91089584B549
:100DE000826084BD63E085E290E00E94560762E085
:100DF00085E290E00C94560784B58F7B84BD0895FE
:100E000084B5806484BD08959C0180E090E08217E1
:100E1000930709F40895EFECF7E03197F1F700C07C
:100E200000000196F4CF8032910571F421B181E088
:100E300090E0AC0102C0440F551F6A95E2F7BA0179
:100E40006095622361B908958332910571F424B1EC
:100E500081E090E0AC0102C0440F551F6A95E2F7B3
:100E6000BA016095622364B908958632910571F4E0
:100E700027B181E090E0AC0102C0440F551F6A9594
:100E8000E2F7BA016095622367B90895899769F41A
:100E90002AB181E090E0AC0102C0440F551F6A9571
:100EA000E2F7BA01609562236AB90895823291052A
:100EB00051F481B121E030E001C0220F6A95EAF7D8
:100EC000822B81B908958532910551F484B121E0D6
:100ED00030E001C0220F6A95EAF7822B84B90895A9
:100EE0008832910551F487B121E030E001C0220F32
:100EF0006A95EAF7822B87B908958B9749F48AB1EE
:100F000021E030E001C0220F6A95EAF7822B8AB90E
:100F100008951F93CF93DF93D82FC92F142F0E94CA
:100F20005607612F8D2F9C2FDF91CF911F910C942D
:100F30005607FC01808121E030E001C0220F6A9554
:100F4000EAF7822B80830895FC01208181E090E004
:100F500001C0880F6A95EAF78095822380830895FF
:100F60000E94BE010E94C50080E090E008958AE0E2
:100F700091E00C945F028AE091E00C94550221E02C
:100F800040E062E270E08BE091E00C94C00197FBDE
:100F9000072E16F4009407D077FD09D00E941D0893
:100FA00007FC05D03EF4909581959F4F089570956C
:100FB00061957F4F0895A1E21A2EAA1BBB1BFD016C
:100FC0000DC0AA1FBB1FEE1FFF1FA217B307E40728
:100FD000F50720F0A21BB30BE40BF50B661F771F80
:100FE000881F991F1A9469F7609570958095909560
:100FF0009B01AC01BD01CF010895EE0FFF1F0590CD
:10100000F491E02D0994A29FB001B39FC001A39F6A
:10101000700D811D1124911DB29F700D811D112431
:10102000911D08950E940308A59F900DB49F900DF7
:10103000A49F800D911D11240895AA1BBB1B51E193
:1010400007C0AA1FBB1FA617B70710F0A61BB70B38
:10105000881F991F5A95A9F780959095BC01CD01DD
:101060000895BB27FB015527AA27880F991FAA1FA0
:10107000A41710F0A41B83955051B9F7A05DAA33B3
:1010800008F0A95DA193009779F7B111B19311927E
:10109000CB010C944B08DC01FC01672F7191772385
:1010A000E1F7329704C07C916D9370836291AE1723
:1010B000BF07C8F3089510E0C0E4D0E004C0FE010B
:1010C0000E94FD072196C134D107C9F7F894FFCFDC
:1010D0001C0520052305260529052C052F053205AD
:1010E000350538053B053E054105440547054A05DC
:1010F0004D0550055305560559055C055F0562050C
:10110000650568056B056E057105740577057A053B
:0A1110007D0580058305860589052D
:0A111A0002000200A001000800001E
:00000001FF
